{
  "contractName": "OathForge",
  "abi": [
    {
      "constant": true,
      "inputs": [
        {
          "name": "interfaceId",
          "type": "bytes4"
        }
      ],
      "name": "supportsInterface",
      "outputs": [
        {
          "name": "",
          "type": "bool"
        }
      ],
      "payable": false,
      "stateMutability": "view",
      "type": "function"
    },
    {
      "constant": true,
      "inputs": [],
      "name": "name",
      "outputs": [
        {
          "name": "",
          "type": "string"
        }
      ],
      "payable": false,
      "stateMutability": "view",
      "type": "function"
    },
    {
      "constant": true,
      "inputs": [
        {
          "name": "tokenId",
          "type": "uint256"
        }
      ],
      "name": "getApproved",
      "outputs": [
        {
          "name": "",
          "type": "address"
        }
      ],
      "payable": false,
      "stateMutability": "view",
      "type": "function"
    },
    {
      "constant": false,
      "inputs": [
        {
          "name": "to",
          "type": "address"
        },
        {
          "name": "tokenId",
          "type": "uint256"
        }
      ],
      "name": "approve",
      "outputs": [],
      "payable": false,
      "stateMutability": "nonpayable",
      "type": "function"
    },
    {
      "constant": false,
      "inputs": [
        {
          "name": "from",
          "type": "address"
        },
        {
          "name": "to",
          "type": "address"
        },
        {
          "name": "tokenId",
          "type": "uint256"
        }
      ],
      "name": "safeTransferFrom",
      "outputs": [],
      "payable": false,
      "stateMutability": "nonpayable",
      "type": "function"
    },
    {
      "constant": true,
      "inputs": [
        {
          "name": "tokenId",
          "type": "uint256"
        }
      ],
      "name": "ownerOf",
      "outputs": [
        {
          "name": "",
          "type": "address"
        }
      ],
      "payable": false,
      "stateMutability": "view",
      "type": "function"
    },
    {
      "constant": true,
      "inputs": [
        {
          "name": "owner",
          "type": "address"
        }
      ],
      "name": "balanceOf",
      "outputs": [
        {
          "name": "",
          "type": "uint256"
        }
      ],
      "payable": false,
      "stateMutability": "view",
      "type": "function"
    },
    {
      "constant": false,
      "inputs": [],
      "name": "renounceOwnership",
      "outputs": [],
      "payable": false,
      "stateMutability": "nonpayable",
      "type": "function"
    },
    {
      "constant": true,
      "inputs": [],
      "name": "owner",
      "outputs": [
        {
          "name": "",
          "type": "address"
        }
      ],
      "payable": false,
      "stateMutability": "view",
      "type": "function"
    },
    {
      "constant": true,
      "inputs": [],
      "name": "isOwner",
      "outputs": [
        {
          "name": "",
          "type": "bool"
        }
      ],
      "payable": false,
      "stateMutability": "view",
      "type": "function"
    },
    {
      "constant": true,
      "inputs": [],
      "name": "symbol",
      "outputs": [
        {
          "name": "",
          "type": "string"
        }
      ],
      "payable": false,
      "stateMutability": "view",
      "type": "function"
    },
    {
      "constant": false,
      "inputs": [
        {
          "name": "to",
          "type": "address"
        },
        {
          "name": "approved",
          "type": "bool"
        }
      ],
      "name": "setApprovalForAll",
      "outputs": [],
      "payable": false,
      "stateMutability": "nonpayable",
      "type": "function"
    },
    {
      "constant": false,
      "inputs": [
        {
          "name": "from",
          "type": "address"
        },
        {
          "name": "to",
          "type": "address"
        },
        {
          "name": "tokenId",
          "type": "uint256"
        },
        {
          "name": "_data",
          "type": "bytes"
        }
      ],
      "name": "safeTransferFrom",
      "outputs": [],
      "payable": false,
      "stateMutability": "nonpayable",
      "type": "function"
    },
    {
      "constant": true,
      "inputs": [
        {
          "name": "tokenId",
          "type": "uint256"
        }
      ],
      "name": "tokenURI",
      "outputs": [
        {
          "name": "",
          "type": "string"
        }
      ],
      "payable": false,
      "stateMutability": "view",
      "type": "function"
    },
    {
      "constant": true,
      "inputs": [
        {
          "name": "owner",
          "type": "address"
        },
        {
          "name": "operator",
          "type": "address"
        }
      ],
      "name": "isApprovedForAll",
      "outputs": [
        {
          "name": "",
          "type": "bool"
        }
      ],
      "payable": false,
      "stateMutability": "view",
      "type": "function"
    },
    {
      "constant": false,
      "inputs": [
        {
          "name": "newOwner",
          "type": "address"
        }
      ],
      "name": "transferOwnership",
      "outputs": [],
      "payable": false,
      "stateMutability": "nonpayable",
      "type": "function"
    },
    {
      "inputs": [
        {
          "name": "name",
          "type": "string"
        },
        {
          "name": "symbol",
          "type": "string"
        }
      ],
      "payable": false,
      "stateMutability": "nonpayable",
      "type": "constructor"
    },
    {
      "anonymous": false,
      "inputs": [
        {
          "indexed": true,
          "name": "tokenId",
          "type": "uint256"
        }
      ],
      "name": "SunsetInitiated",
      "type": "event"
    },
    {
      "anonymous": false,
      "inputs": [
        {
          "indexed": true,
          "name": "tokenId",
          "type": "uint256"
        },
        {
          "indexed": false,
          "name": "redemptionCodeHash",
          "type": "bytes32"
        }
      ],
      "name": "RedemptionCodeHashSubmitted",
      "type": "event"
    },
    {
      "anonymous": false,
      "inputs": [
        {
          "indexed": true,
          "name": "previousOwner",
          "type": "address"
        },
        {
          "indexed": true,
          "name": "newOwner",
          "type": "address"
        }
      ],
      "name": "OwnershipTransferred",
      "type": "event"
    },
    {
      "anonymous": false,
      "inputs": [
        {
          "indexed": true,
          "name": "from",
          "type": "address"
        },
        {
          "indexed": true,
          "name": "to",
          "type": "address"
        },
        {
          "indexed": true,
          "name": "tokenId",
          "type": "uint256"
        }
      ],
      "name": "Transfer",
      "type": "event"
    },
    {
      "anonymous": false,
      "inputs": [
        {
          "indexed": true,
          "name": "owner",
          "type": "address"
        },
        {
          "indexed": true,
          "name": "approved",
          "type": "address"
        },
        {
          "indexed": true,
          "name": "tokenId",
          "type": "uint256"
        }
      ],
      "name": "Approval",
      "type": "event"
    },
    {
      "anonymous": false,
      "inputs": [
        {
          "indexed": true,
          "name": "owner",
          "type": "address"
        },
        {
          "indexed": true,
          "name": "operator",
          "type": "address"
        },
        {
          "indexed": false,
          "name": "approved",
          "type": "bool"
        }
      ],
      "name": "ApprovalForAll",
      "type": "event"
    },
    {
      "constant": true,
      "inputs": [],
      "name": "totalSupply",
      "outputs": [
        {
          "name": "",
          "type": "uint256"
        }
      ],
      "payable": false,
      "stateMutability": "view",
      "type": "function"
    },
    {
      "constant": true,
      "inputs": [],
      "name": "nextTokenId",
      "outputs": [
        {
          "name": "",
          "type": "uint256"
        }
      ],
      "payable": false,
      "stateMutability": "view",
      "type": "function"
    },
    {
      "constant": true,
      "inputs": [
        {
          "name": "tokenId",
          "type": "uint256"
        }
      ],
      "name": "sunsetInitiatedAt",
      "outputs": [
        {
          "name": "",
          "type": "uint256"
        }
      ],
      "payable": false,
      "stateMutability": "view",
      "type": "function"
    },
    {
      "constant": true,
      "inputs": [
        {
          "name": "tokenId",
          "type": "uint256"
        }
      ],
      "name": "sunsetLength",
      "outputs": [
        {
          "name": "",
          "type": "uint256"
        }
      ],
      "payable": false,
      "stateMutability": "view",
      "type": "function"
    },
    {
      "constant": true,
      "inputs": [
        {
          "name": "tokenId",
          "type": "uint256"
        }
      ],
      "name": "redemptionCodeHash",
      "outputs": [
        {
          "name": "",
          "type": "bytes32"
        }
      ],
      "payable": false,
      "stateMutability": "view",
      "type": "function"
    },
    {
      "constant": true,
      "inputs": [
        {
          "name": "tokenId",
          "type": "uint256"
        }
      ],
      "name": "redemptionCodeHashSubmittedAt",
      "outputs": [
        {
          "name": "",
          "type": "uint256"
        }
      ],
      "payable": false,
      "stateMutability": "view",
      "type": "function"
    },
    {
      "constant": false,
      "inputs": [
        {
          "name": "to",
          "type": "address"
        },
        {
          "name": "tokenURI",
          "type": "string"
        },
        {
          "name": "__sunsetLength",
          "type": "uint256"
        }
      ],
      "name": "mint",
      "outputs": [],
      "payable": false,
      "stateMutability": "nonpayable",
      "type": "function"
    },
    {
      "constant": false,
      "inputs": [
        {
          "name": "tokenId",
          "type": "uint256"
        }
      ],
      "name": "initiateSunset",
      "outputs": [],
      "payable": false,
      "stateMutability": "nonpayable",
      "type": "function"
    },
    {
      "constant": false,
      "inputs": [
        {
          "name": "tokenId",
          "type": "uint256"
        },
        {
          "name": "__redemptionCodeHash",
          "type": "bytes32"
        }
      ],
      "name": "submitRedemptionCodeHash",
      "outputs": [],
      "payable": false,
      "stateMutability": "nonpayable",
      "type": "function"
    },
    {
      "constant": false,
      "inputs": [
        {
          "name": "from",
          "type": "address"
        },
        {
          "name": "to",
          "type": "address"
        },
        {
          "name": "tokenId",
          "type": "uint256"
        }
      ],
      "name": "transferFrom",
      "outputs": [],
      "payable": false,
      "stateMutability": "nonpayable",
      "type": "function"
    },
    {
      "constant": false,
      "inputs": [
        {
          "name": "tokenId",
          "type": "uint256"
        },
        {
          "name": "tokenURI",
          "type": "string"
        }
      ],
      "name": "setTokenURI",
      "outputs": [],
      "payable": false,
      "stateMutability": "nonpayable",
      "type": "function"
    }
  ],
  "bytecode": "0x60806040523480156200001157600080fd5b506040516200268538038062002685833981018060405281019080805182019291906020018051820192919050505081816200007f6301ffc9a77c010000000000000000000000000000000000000000000000000000000002620001f3640100000000026401000000009004565b620000bc6380ac58cd7c010000000000000000000000000000000000000000000000000000000002620001f3640100000000026401000000009004565b8160059080519060200190620000d4929190620002b1565b508060069080519060200190620000ed929190620002b1565b506200012b635b5e139f7c010000000000000000000000000000000000000000000000000000000002620001f3640100000000026401000000009004565b505033600860006101000a81548173ffffffffffffffffffffffffffffffffffffffff021916908373ffffffffffffffffffffffffffffffffffffffff160217905550600860009054906101000a900473ffffffffffffffffffffffffffffffffffffffff1673ffffffffffffffffffffffffffffffffffffffff16600073ffffffffffffffffffffffffffffffffffffffff167f8be0079c531659141344cd1fd0a4f28419497f9722a3daafe3b4186f6b6457e060405160405180910390a3505062000360565b63ffffffff7c010000000000000000000000000000000000000000000000000000000002817bffffffffffffffffffffffffffffffffffffffffffffffffffffffff1916141515156200024557600080fd5b6001600080837bffffffffffffffffffffffffffffffffffffffffffffffffffffffff19167bffffffffffffffffffffffffffffffffffffffffffffffffffffffff1916815260200190815260200160002060006101000a81548160ff02191690831515021790555050565b828054600181600116156101000203166002900490600052602060002090601f016020900481019282601f10620002f457805160ff191683800117855562000325565b8280016001018555821562000325579182015b828111156200032457825182559160200191906001019062000307565b5b50905062000334919062000338565b5090565b6200035d91905b80821115620003595760008160009055506001016200033f565b5090565b90565b61231580620003706000396000f30060806040526004361061015f576000357c0100000000000000000000000000000000000000000000000000000000900463ffffffff16806301ffc9a71461016457806306fdde03146101c8578063081812fc14610258578063095ea7b3146102c5578063162094c41461031257806318160ddd14610357578063205f23671461038257806323b872dd146103c357806342842e0e146104305780636352211e1461049d57806370a082311461050a578063715018a61461056157806375794a3c146105785780637f267355146105a35780638da5cb5b146105e45780638e0f8e761461063b5780638f32d59b1461066857806395d89b4114610697578063a22cb46514610727578063b88d4fde14610776578063ba7aef4314610829578063c87b56dd146108bc578063e985e9c514610962578063f047d340146109dd578063f1c744db14610a18578063f2fde38b14610a59578063fd68df8f14610a9c575b600080fd5b34801561017057600080fd5b506101ae60048036038101908080357bffffffffffffffffffffffffffffffffffffffffffffffffffffffff19169060200190929190505050610ae5565b604051808215151515815260200191505060405180910390f35b3480156101d457600080fd5b506101dd610b4c565b6040518080602001828103825283818151815260200191508051906020019080838360005b8381101561021d578082015181840152602081019050610202565b50505050905090810190601f16801561024a5780820380516001836020036101000a031916815260200191505b509250505060405180910390f35b34801561026457600080fd5b5061028360048036038101908080359060200190929190505050610bee565b604051808273ffffffffffffffffffffffffffffffffffffffff1673ffffffffffffffffffffffffffffffffffffffff16815260200191505060405180910390f35b3480156102d157600080fd5b50610310600480360381019080803573ffffffffffffffffffffffffffffffffffffffff16906020019092919080359060200190929190505050610c3f565b005b34801561031e57600080fd5b5061035560048036038101908080359060200190929190803590602001908201803590602001919091929391929390505050610d84565b005b34801561036357600080fd5b5061036c610dd8565b6040518082815260200191505060405180910390f35b34801561038e57600080fd5b506103ad60048036038101908080359060200190929190505050610de2565b6040518082815260200191505060405180910390f35b3480156103cf57600080fd5b5061042e600480360381019080803573ffffffffffffffffffffffffffffffffffffffff169060200190929190803573ffffffffffffffffffffffffffffffffffffffff16906020019092919080359060200190929190505050610dff565b005b34801561043c57600080fd5b5061049b600480360381019080803573ffffffffffffffffffffffffffffffffffffffff169060200190929190803573ffffffffffffffffffffffffffffffffffffffff16906020019092919080359060200190929190505050610e73565b005b3480156104a957600080fd5b506104c860048036038101908080359060200190929190505050610e94565b604051808273ffffffffffffffffffffffffffffffffffffffff1673ffffffffffffffffffffffffffffffffffffffff16815260200191505060405180910390f35b34801561051657600080fd5b5061054b600480360381019080803573ffffffffffffffffffffffffffffffffffffffff169060200190929190505050610f12565b6040518082815260200191505060405180910390f35b34801561056d57600080fd5b50610576610f96565b005b34801561058457600080fd5b5061058d61106a565b6040518082815260200191505060405180910390f35b3480156105af57600080fd5b506105ce60048036038101908080359060200190929190505050611074565b6040518082815260200191505060405180910390f35b3480156105f057600080fd5b506105f9611091565b604051808273ffffffffffffffffffffffffffffffffffffffff1673ffffffffffffffffffffffffffffffffffffffff16815260200191505060405180910390f35b34801561064757600080fd5b50610666600480360381019080803590602001909291905050506110bb565b005b34801561067457600080fd5b5061067d611138565b604051808215151515815260200191505060405180910390f35b3480156106a357600080fd5b506106ac611190565b6040518080602001828103825283818151815260200191508051906020019080838360005b838110156106ec5780820151818401526020810190506106d1565b50505050905090810190601f1680156107195780820380516001836020036101000a031916815260200191505b509250505060405180910390f35b34801561073357600080fd5b50610774600480360381019080803573ffffffffffffffffffffffffffffffffffffffff169060200190929190803515159060200190929190505050611232565b005b34801561078257600080fd5b50610827600480360381019080803573ffffffffffffffffffffffffffffffffffffffff169060200190929190803573ffffffffffffffffffffffffffffffffffffffff16906020019092919080359060200190929190803590602001908201803590602001908080601f016020809104026020016040519081016040528093929190818152602001838380828437820191505050505050919291929050505061136e565b005b34801561083557600080fd5b506108ba600480360381019080803573ffffffffffffffffffffffffffffffffffffffff169060200190929190803590602001908201803590602001908080601f016020809104026020016040519081016040528093929190818152602001838380828437820191505050505050919291929080359060200190929190505050611396565b005b3480156108c857600080fd5b506108e760048036038101908080359060200190929190505050611418565b6040518080602001828103825283818151815260200191508051906020019080838360005b8381101561092757808201518184015260208101905061090c565b50505050905090810190601f1680156109545780820380516001836020036101000a031916815260200191505b509250505060405180910390f35b34801561096e57600080fd5b506109c3600480360381019080803573ffffffffffffffffffffffffffffffffffffffff169060200190929190803573ffffffffffffffffffffffffffffffffffffffff1690602001909291905050506114e1565b604051808215151515815260200191505060405180910390f35b3480156109e957600080fd5b50610a16600480360381019080803590602001909291908035600019169060200190929190505050611575565b005b348015610a2457600080fd5b50610a4360048036038101908080359060200190929190505050611613565b6040518082815260200191505060405180910390f35b348015610a6557600080fd5b50610a9a600480360381019080803573ffffffffffffffffffffffffffffffffffffffff169060200190929190505050611630565b005b348015610aa857600080fd5b50610ac76004803603810190808035906020019092919050505061164f565b60405180826000191660001916815260200191505060405180910390f35b6000806000837bffffffffffffffffffffffffffffffffffffffffffffffffffffffff19167bffffffffffffffffffffffffffffffffffffffffffffffffffffffff1916815260200190815260200160002060009054906101000a900460ff169050919050565b606060058054600181600116156101000203166002900480601f016020809104026020016040519081016040528092919081815260200182805460018160011615610100020316600290048015610be45780601f10610bb957610100808354040283529160200191610be4565b820191906000526020600020905b815481529060010190602001808311610bc757829003601f168201915b5050505050905090565b6000610bf98261166c565b1515610c0457600080fd5b6002600083815260200190815260200160002060009054906101000a900473ffffffffffffffffffffffffffffffffffffffff169050919050565b6000610c4a82610e94565b90508073ffffffffffffffffffffffffffffffffffffffff168373ffffffffffffffffffffffffffffffffffffffff1614151515610c8757600080fd5b8073ffffffffffffffffffffffffffffffffffffffff163373ffffffffffffffffffffffffffffffffffffffff161480610cc75750610cc681336114e1565b5b1515610cd257600080fd5b826002600084815260200190815260200160002060006101000a81548173ffffffffffffffffffffffffffffffffffffffff021916908373ffffffffffffffffffffffffffffffffffffffff160217905550818373ffffffffffffffffffffffffffffffffffffffff168273ffffffffffffffffffffffffffffffffffffffff167f8c5be1e5ebec7d5bd14f71427d1e84f3dd0314c0f7b2291e5b200ac8c7c3b92560405160405180910390a4505050565b610d8c611138565b1515610d9757600080fd5b610dd38383838080601f0160208091040260200160405190810160405280939291908181526020018383808284378201915050505050506116de565b505050565b6000600954905090565b6000600b6000838152602001908152602001600020549050919050565b6000600b6000838152602001908152602001600020541115610e6357610e54600c600083815260200190815260200160002054600b60008481526020019081526020016000205461171e90919063ffffffff16565b4211151515610e6257600080fd5b5b610e6e83838361173f565b505050565b610e8f838383602060405190810160405280600081525061136e565b505050565b6000806001600084815260200190815260200160002060009054906101000a900473ffffffffffffffffffffffffffffffffffffffff169050600073ffffffffffffffffffffffffffffffffffffffff168173ffffffffffffffffffffffffffffffffffffffff1614151515610f0957600080fd5b80915050919050565b60008073ffffffffffffffffffffffffffffffffffffffff168273ffffffffffffffffffffffffffffffffffffffff1614151515610f4f57600080fd5b600360008373ffffffffffffffffffffffffffffffffffffffff1673ffffffffffffffffffffffffffffffffffffffff168152602001908152602001600020549050919050565b610f9e611138565b1515610fa957600080fd5b600073ffffffffffffffffffffffffffffffffffffffff16600860009054906101000a900473ffffffffffffffffffffffffffffffffffffffff1673ffffffffffffffffffffffffffffffffffffffff167f8be0079c531659141344cd1fd0a4f28419497f9722a3daafe3b4186f6b6457e060405160405180910390a36000600860006101000a81548173ffffffffffffffffffffffffffffffffffffffff021916908373ffffffffffffffffffffffffffffffffffffffff160217905550565b6000600a54905090565b6000600c6000838152602001908152602001600020549050919050565b6000600860009054906101000a900473ffffffffffffffffffffffffffffffffffffffff16905090565b6110c3611138565b15156110ce57600080fd5b6000600b6000838152602001908152602001600020541415156110f057600080fd5b42600b600083815260200190815260200160002081905550807f5b4581c5cf2ee35f18b3324e5fc196753fd9d0d59e7428651242044ce77f304160405160405180910390a250565b6000600860009054906101000a900473ffffffffffffffffffffffffffffffffffffffff1673ffffffffffffffffffffffffffffffffffffffff163373ffffffffffffffffffffffffffffffffffffffff1614905090565b606060068054600181600116156101000203166002900480601f0160208091040260200160405190810160405280929190818152602001828054600181600116156101000203166002900480156112285780601f106111fd57610100808354040283529160200191611228565b820191906000526020600020905b81548152906001019060200180831161120b57829003601f168201915b5050505050905090565b3373ffffffffffffffffffffffffffffffffffffffff168273ffffffffffffffffffffffffffffffffffffffff161415151561126d57600080fd5b80600460003373ffffffffffffffffffffffffffffffffffffffff1673ffffffffffffffffffffffffffffffffffffffff16815260200190815260200160002060008473ffffffffffffffffffffffffffffffffffffffff1673ffffffffffffffffffffffffffffffffffffffff16815260200190815260200160002060006101000a81548160ff0219169083151502179055508173ffffffffffffffffffffffffffffffffffffffff163373ffffffffffffffffffffffffffffffffffffffff167f17307eab39ab6107e8899845ad3d59bd9653f200f220920489ca2b5937696c3183604051808215151515815260200191505060405180910390a35050565b611379848484610dff565b61138584848484611764565b151561139057600080fd5b50505050565b61139e611138565b15156113a957600080fd5b6113b583600a54611986565b80600c6000600a548152602001908152602001600020819055506113db600a54836116de565b6113f16001600a5461171e90919063ffffffff16565b600a8190555061140d600160095461171e90919063ffffffff16565b600981905550505050565b60606114238261166c565b151561142e57600080fd5b600760008381526020019081526020016000208054600181600116156101000203166002900480601f0160208091040260200160405190810160405280929190818152602001828054600181600116156101000203166002900480156114d55780601f106114aa576101008083540402835291602001916114d5565b820191906000526020600020905b8154815290600101906020018083116114b857829003601f168201915b50505050509050919050565b6000600460008473ffffffffffffffffffffffffffffffffffffffff1673ffffffffffffffffffffffffffffffffffffffff16815260200190815260200160002060008373ffffffffffffffffffffffffffffffffffffffff1673ffffffffffffffffffffffffffffffffffffffff16815260200190815260200160002060009054906101000a900460ff16905092915050565b61157f3383611b1f565b42600d60008481526020019081526020016000208190555080600e600084815260200190815260200160002081600019169055506115c96001600954611b7e90919063ffffffff16565b600981905550817f6456afd40b2dfdc87d54958d4f8036f0f1c2a994e5dcacf6f308960dc67a69978260405180826000191660001916815260200191505060405180910390a25050565b6000600d6000838152602001908152602001600020549050919050565b611638611138565b151561164357600080fd5b61164c81611b9f565b50565b6000600e6000838152602001908152602001600020549050919050565b6000806001600084815260200190815260200160002060009054906101000a900473ffffffffffffffffffffffffffffffffffffffff169050600073ffffffffffffffffffffffffffffffffffffffff168173ffffffffffffffffffffffffffffffffffffffff161415915050919050565b6116e78261166c565b15156116f257600080fd5b806007600084815260200190815260200160002090805190602001906117199291906121fc565b505050565b600080828401905083811015151561173557600080fd5b8091505092915050565b6117493382611c9b565b151561175457600080fd5b61175f838383611d30565b505050565b6000806117868573ffffffffffffffffffffffffffffffffffffffff16611f95565b1515611795576001915061197d565b8473ffffffffffffffffffffffffffffffffffffffff1663150b7a02338887876040518563ffffffff167c0100000000000000000000000000000000000000000000000000000000028152600401808573ffffffffffffffffffffffffffffffffffffffff1673ffffffffffffffffffffffffffffffffffffffff1681526020018473ffffffffffffffffffffffffffffffffffffffff1673ffffffffffffffffffffffffffffffffffffffff16815260200183815260200180602001828103825283818151815260200191508051906020019080838360005b8381101561188a57808201518184015260208101905061186f565b50505050905090810190601f1680156118b75780820380516001836020036101000a031916815260200191505b5095505050505050602060405180830381600087803b1580156118d957600080fd5b505af11580156118ed573d6000803e3d6000fd5b505050506040513d602081101561190357600080fd5b8101908080519060200190929190505050905063150b7a027c0100000000000000000000000000000000000000000000000000000000027bffffffffffffffffffffffffffffffffffffffffffffffffffffffff1916817bffffffffffffffffffffffffffffffffffffffffffffffffffffffff19161491505b50949350505050565b600073ffffffffffffffffffffffffffffffffffffffff168273ffffffffffffffffffffffffffffffffffffffff16141515156119c257600080fd5b6119cb8161166c565b1515156119d757600080fd5b816001600083815260200190815260200160002060006101000a81548173ffffffffffffffffffffffffffffffffffffffff021916908373ffffffffffffffffffffffffffffffffffffffff160217905550611a7c6001600360008573ffffffffffffffffffffffffffffffffffffffff1673ffffffffffffffffffffffffffffffffffffffff1681526020019081526020016000205461171e90919063ffffffff16565b600360008473ffffffffffffffffffffffffffffffffffffffff1673ffffffffffffffffffffffffffffffffffffffff16815260200190815260200160002081905550808273ffffffffffffffffffffffffffffffffffffffff16600073ffffffffffffffffffffffffffffffffffffffff167fddf252ad1be2c89b69c2b068fc378daa952ba7f163c4a11628f55a4df523b3ef60405160405180910390a45050565b611b298282611fa8565b600060076000838152602001908152602001600020805460018160011615610100020316600290049050141515611b7a57600760008281526020019081526020016000206000611b79919061227c565b5b5050565b600080838311151515611b9057600080fd5b82840390508091505092915050565b600073ffffffffffffffffffffffffffffffffffffffff168173ffffffffffffffffffffffffffffffffffffffff1614151515611bdb57600080fd5b8073ffffffffffffffffffffffffffffffffffffffff16600860009054906101000a900473ffffffffffffffffffffffffffffffffffffffff1673ffffffffffffffffffffffffffffffffffffffff167f8be0079c531659141344cd1fd0a4f28419497f9722a3daafe3b4186f6b6457e060405160405180910390a380600860006101000a81548173ffffffffffffffffffffffffffffffffffffffff021916908373ffffffffffffffffffffffffffffffffffffffff16021790555050565b600080611ca783610e94565b90508073ffffffffffffffffffffffffffffffffffffffff168473ffffffffffffffffffffffffffffffffffffffff161480611d1657508373ffffffffffffffffffffffffffffffffffffffff16611cfe84610bee565b73ffffffffffffffffffffffffffffffffffffffff16145b80611d275750611d2681856114e1565b5b91505092915050565b8273ffffffffffffffffffffffffffffffffffffffff16611d5082610e94565b73ffffffffffffffffffffffffffffffffffffffff16141515611d7257600080fd5b600073ffffffffffffffffffffffffffffffffffffffff168273ffffffffffffffffffffffffffffffffffffffff1614151515611dae57600080fd5b611db78161213c565b611e0a6001600360008673ffffffffffffffffffffffffffffffffffffffff1673ffffffffffffffffffffffffffffffffffffffff16815260200190815260200160002054611b7e90919063ffffffff16565b600360008573ffffffffffffffffffffffffffffffffffffffff1673ffffffffffffffffffffffffffffffffffffffff16815260200190815260200160002081905550611ea06001600360008573ffffffffffffffffffffffffffffffffffffffff1673ffffffffffffffffffffffffffffffffffffffff1681526020019081526020016000205461171e90919063ffffffff16565b600360008473ffffffffffffffffffffffffffffffffffffffff1673ffffffffffffffffffffffffffffffffffffffff16815260200190815260200160002081905550816001600083815260200190815260200160002060006101000a81548173ffffffffffffffffffffffffffffffffffffffff021916908373ffffffffffffffffffffffffffffffffffffffff160217905550808273ffffffffffffffffffffffffffffffffffffffff168473ffffffffffffffffffffffffffffffffffffffff167fddf252ad1be2c89b69c2b068fc378daa952ba7f163c4a11628f55a4df523b3ef60405160405180910390a4505050565b600080823b905060008111915050919050565b8173ffffffffffffffffffffffffffffffffffffffff16611fc882610e94565b73ffffffffffffffffffffffffffffffffffffffff16141515611fea57600080fd5b611ff38161213c565b6120466001600360008573ffffffffffffffffffffffffffffffffffffffff1673ffffffffffffffffffffffffffffffffffffffff16815260200190815260200160002054611b7e90919063ffffffff16565b600360008473ffffffffffffffffffffffffffffffffffffffff1673ffffffffffffffffffffffffffffffffffffffff1681526020019081526020016000208190555060006001600083815260200190815260200160002060006101000a81548173ffffffffffffffffffffffffffffffffffffffff021916908373ffffffffffffffffffffffffffffffffffffffff16021790555080600073ffffffffffffffffffffffffffffffffffffffff168373ffffffffffffffffffffffffffffffffffffffff167fddf252ad1be2c89b69c2b068fc378daa952ba7f163c4a11628f55a4df523b3ef60405160405180910390a45050565b600073ffffffffffffffffffffffffffffffffffffffff166002600083815260200190815260200160002060009054906101000a900473ffffffffffffffffffffffffffffffffffffffff1673ffffffffffffffffffffffffffffffffffffffff161415156121f95760006002600083815260200190815260200160002060006101000a81548173ffffffffffffffffffffffffffffffffffffffff021916908373ffffffffffffffffffffffffffffffffffffffff1602179055505b50565b828054600181600116156101000203166002900490600052602060002090601f016020900481019282601f1061223d57805160ff191683800117855561226b565b8280016001018555821561226b579182015b8281111561226a57825182559160200191906001019061224f565b5b50905061227891906122c4565b5090565b50805460018160011615610100020316600290046000825580601f106122a257506122c1565b601f0160209004906000526020600020908101906122c091906122c4565b5b50565b6122e691905b808211156122e25760008160009055506001016122ca565b5090565b905600a165627a7a723058204a690d76e8286e0f4f6c6a0ab87795012908bb3923d5c7270f2c433e37020ad40029",
  "source": "pragma solidity ^0.4.24;\n\nimport \"./ERC721.sol\";\nimport \"./ERC721Metadata.sol\";\nimport \"./SafeMath.sol\";\nimport \"./Ownable.sol\";\n\n/// @title OathForge: NFT Registry\n/// @author GuildCrypt\ncontract OathForge is ERC721, ERC721Metadata, Ownable {\n\n  using SafeMath for uint256;\n\n  uint256 private _totalSupply;\n  uint256 private _nextTokenId;\n  mapping(uint256 => uint256) private _sunsetInitiatedAt;\n  mapping(uint256 => uint256) private _sunsetLength;\n  mapping(uint256 => uint256) private _redemptionCodeHashSubmittedAt;\n  mapping(uint256 => bytes32) private _redemptionCodeHash;\n\n  /// @param name The ERC721 Metadata name\n  /// @param symbol The ERC721 Metadata symbol\n  constructor(string name, string symbol) ERC721Metadata(name, symbol) public {}\n\n  /// @dev Emits when a sunset has been initiated\n  /// @param tokenId The token id\n  event SunsetInitiated(uint256 indexed tokenId);\n\n  /// @dev Emits when a redemption code hash has been submitted\n  /// @param tokenId The token id\n  /// @param redemptionCodeHash The redemption code hash\n  event RedemptionCodeHashSubmitted(uint256 indexed tokenId, bytes32 redemptionCodeHash);\n\n  /// @dev Returns the total number of tokens (minted - burned) registered\n  function totalSupply() external view returns(uint256){\n    return _totalSupply;\n  }\n\n  /// @dev Returns the token id of the next minted token\n  function nextTokenId() external view returns(uint256){\n    return _nextTokenId;\n  }\n\n  /// @dev Returns the timestamp at which a token's sunset was initated. Returns 0 if no sunset has been initated.\n  /// @param tokenId The token id\n  function sunsetInitiatedAt(uint256 tokenId) external view returns(uint256){\n    return _sunsetInitiatedAt[tokenId];\n  }\n\n  /// @dev Returns the sunset length of a token\n  /// @param tokenId The token id\n  function sunsetLength(uint256 tokenId) external view returns(uint256){\n    return _sunsetLength[tokenId];\n  }\n\n  /// @dev Returns the redemption code hash submitted for a token\n  /// @param tokenId The token id\n  function redemptionCodeHash(uint256 tokenId) external view returns(bytes32){\n    return _redemptionCodeHash[tokenId];\n  }\n\n  /// @dev Returns the timestamp at which a redemption code hash was submitted\n  /// @param tokenId The token id\n  function redemptionCodeHashSubmittedAt(uint256 tokenId) external view returns(uint256){\n    return _redemptionCodeHashSubmittedAt[tokenId];\n  }\n\n\n  /// @dev Mint a token. Only `owner` may call this function.\n  /// @param to The receiver of the token\n  /// @param tokenURI The tokenURI of the the tokenURI\n  /// @param __sunsetLength The length (in seconds) that a sunset period can last\n  function mint(address to, string tokenURI, uint256 __sunsetLength) public onlyOwner {\n    _mint(to, _nextTokenId);\n    _sunsetLength[_nextTokenId] = __sunsetLength;\n    _setTokenURI(_nextTokenId, tokenURI);\n    _nextTokenId = _nextTokenId.add(1);\n    _totalSupply = _totalSupply.add(1);\n  }\n\n  /// @dev Initiate a sunset. Sets `sunsetInitiatedAt` to current timestamp. Only `owner` may call this function.\n  /// @param tokenId The id of the token\n  function initiateSunset(uint256 tokenId) external onlyOwner {\n    require(_sunsetInitiatedAt[tokenId] == 0);\n    _sunsetInitiatedAt[tokenId] = now;\n    emit SunsetInitiated(tokenId);\n  }\n\n  /// @dev Submit a redemption code hash for a specific token. Burns the token. Sets `redemptionCodeHashSubmittedAt` to current timestamp. Decreases `totalSupply` by 1.\n  /// @param tokenId The id of the token\n  /// @param __redemptionCodeHash The redemption code hash\n  function submitRedemptionCodeHash(uint256 tokenId, bytes32 __redemptionCodeHash) external {\n    _burn(msg.sender, tokenId);\n    _redemptionCodeHashSubmittedAt[tokenId] = now;\n    _redemptionCodeHash[tokenId] = __redemptionCodeHash;\n    _totalSupply = _totalSupply.sub(1);\n    emit RedemptionCodeHashSubmitted(tokenId, __redemptionCodeHash);\n  }\n\n  /// @dev Transfers the ownership of a given token ID to another address. Usage of this method is discouraged, use `safeTransferFrom` whenever possible. Requires the msg sender to be the owner, approved, or operator\n  /// @param from current owner of the token\n  /// @param to address to receive the ownership of the given token ID\n  /// @param tokenId uint256 ID of the token to be transferred\n  function transferFrom(address from, address to, uint256 tokenId) public {\n    if (_sunsetInitiatedAt[tokenId] > 0) {\n      require(now <= _sunsetInitiatedAt[tokenId].add(_sunsetLength[tokenId]));\n    }\n    super.transferFrom(from, to, tokenId);\n  }\n\n  /// @dev Set `tokenUri`. Only `owner` may do this.\n  /// @param tokenId The id of the token\n  /// @param tokenURI The token URI\n  function setTokenURI(uint256 tokenId, string tokenURI) external onlyOwner {\n    _setTokenURI(tokenId, tokenURI);\n  }\n\n}\n",
  "sourcePath": "/home/abhi_21094/Projects/GuildCryptAudit/crypt/contracts/OathForge.sol",
  "compiler": {
    "name": "solc",
    "version": "0.4.24+commit.e67f0147.Emscripten.clang"
  },
  "schemaVersion": "2.0.0",
  "updatedAt": "2019-01-13T15:38:40.352Z"
}