{
  "contractName": "RiftPact",
  "abi": [
    {
      "constant": false,
      "inputs": [
        {
          "name": "spender",
          "type": "address"
        },
        {
          "name": "value",
          "type": "uint256"
        }
      ],
      "name": "approve",
      "outputs": [
        {
          "name": "",
          "type": "bool"
        }
      ],
      "payable": false,
      "stateMutability": "nonpayable",
      "type": "function"
    },
    {
      "constant": true,
      "inputs": [],
      "name": "totalSupply",
      "outputs": [
        {
          "name": "",
          "type": "uint256"
        }
      ],
      "payable": false,
      "stateMutability": "view",
      "type": "function"
    },
    {
      "constant": false,
      "inputs": [
        {
          "name": "from",
          "type": "address"
        },
        {
          "name": "to",
          "type": "address"
        },
        {
          "name": "value",
          "type": "uint256"
        }
      ],
      "name": "transferFrom",
      "outputs": [
        {
          "name": "",
          "type": "bool"
        }
      ],
      "payable": false,
      "stateMutability": "nonpayable",
      "type": "function"
    },
    {
      "constant": false,
      "inputs": [
        {
          "name": "spender",
          "type": "address"
        },
        {
          "name": "addedValue",
          "type": "uint256"
        }
      ],
      "name": "increaseAllowance",
      "outputs": [
        {
          "name": "",
          "type": "bool"
        }
      ],
      "payable": false,
      "stateMutability": "nonpayable",
      "type": "function"
    },
    {
      "constant": true,
      "inputs": [
        {
          "name": "owner",
          "type": "address"
        }
      ],
      "name": "balanceOf",
      "outputs": [
        {
          "name": "",
          "type": "uint256"
        }
      ],
      "payable": false,
      "stateMutability": "view",
      "type": "function"
    },
    {
      "constant": false,
      "inputs": [
        {
          "name": "spender",
          "type": "address"
        },
        {
          "name": "subtractedValue",
          "type": "uint256"
        }
      ],
      "name": "decreaseAllowance",
      "outputs": [
        {
          "name": "",
          "type": "bool"
        }
      ],
      "payable": false,
      "stateMutability": "nonpayable",
      "type": "function"
    },
    {
      "constant": false,
      "inputs": [
        {
          "name": "to",
          "type": "address"
        },
        {
          "name": "value",
          "type": "uint256"
        }
      ],
      "name": "transfer",
      "outputs": [
        {
          "name": "",
          "type": "bool"
        }
      ],
      "payable": false,
      "stateMutability": "nonpayable",
      "type": "function"
    },
    {
      "constant": true,
      "inputs": [
        {
          "name": "owner",
          "type": "address"
        },
        {
          "name": "spender",
          "type": "address"
        }
      ],
      "name": "allowance",
      "outputs": [
        {
          "name": "",
          "type": "uint256"
        }
      ],
      "payable": false,
      "stateMutability": "view",
      "type": "function"
    },
    {
      "inputs": [
        {
          "name": "__oathForgeTokenId",
          "type": "uint256"
        },
        {
          "name": "__auctionAllowedAt",
          "type": "uint256"
        },
        {
          "name": "__daiAddress",
          "type": "address"
        },
        {
          "name": "__oathForgeAddress",
          "type": "address"
        }
      ],
      "payable": false,
      "stateMutability": "nonpayable",
      "type": "constructor"
    },
    {
      "anonymous": false,
      "inputs": [],
      "name": "AuctionStarted",
      "type": "event"
    },
    {
      "anonymous": false,
      "inputs": [
        {
          "indexed": false,
          "name": "winner",
          "type": "address"
        },
        {
          "indexed": false,
          "name": "bid",
          "type": "uint256"
        }
      ],
      "name": "AuctionCompleted",
      "type": "event"
    },
    {
      "anonymous": false,
      "inputs": [
        {
          "indexed": false,
          "name": "bidder",
          "type": "address"
        },
        {
          "indexed": false,
          "name": "bid",
          "type": "uint256"
        }
      ],
      "name": "Bid",
      "type": "event"
    },
    {
      "anonymous": false,
      "inputs": [
        {
          "indexed": false,
          "name": "to",
          "type": "address"
        },
        {
          "indexed": false,
          "name": "balance",
          "type": "uint256"
        }
      ],
      "name": "Payout",
      "type": "event"
    },
    {
      "anonymous": false,
      "inputs": [
        {
          "indexed": true,
          "name": "from",
          "type": "address"
        },
        {
          "indexed": true,
          "name": "to",
          "type": "address"
        },
        {
          "indexed": false,
          "name": "value",
          "type": "uint256"
        }
      ],
      "name": "Transfer",
      "type": "event"
    },
    {
      "anonymous": false,
      "inputs": [
        {
          "indexed": true,
          "name": "owner",
          "type": "address"
        },
        {
          "indexed": true,
          "name": "spender",
          "type": "address"
        },
        {
          "indexed": false,
          "name": "value",
          "type": "uint256"
        }
      ],
      "name": "Approval",
      "type": "event"
    },
    {
      "constant": true,
      "inputs": [],
      "name": "daiAddress",
      "outputs": [
        {
          "name": "",
          "type": "address"
        }
      ],
      "payable": false,
      "stateMutability": "view",
      "type": "function"
    },
    {
      "constant": true,
      "inputs": [],
      "name": "oathForgeAddress",
      "outputs": [
        {
          "name": "",
          "type": "address"
        }
      ],
      "payable": false,
      "stateMutability": "view",
      "type": "function"
    },
    {
      "constant": true,
      "inputs": [],
      "name": "oathForgeTokenId",
      "outputs": [
        {
          "name": "",
          "type": "uint256"
        }
      ],
      "payable": false,
      "stateMutability": "view",
      "type": "function"
    },
    {
      "constant": true,
      "inputs": [],
      "name": "auctionAllowedAt",
      "outputs": [
        {
          "name": "",
          "type": "uint256"
        }
      ],
      "payable": false,
      "stateMutability": "view",
      "type": "function"
    },
    {
      "constant": true,
      "inputs": [],
      "name": "minBid",
      "outputs": [
        {
          "name": "",
          "type": "uint256"
        }
      ],
      "payable": false,
      "stateMutability": "view",
      "type": "function"
    },
    {
      "constant": true,
      "inputs": [],
      "name": "auctionStartedAt",
      "outputs": [
        {
          "name": "",
          "type": "uint256"
        }
      ],
      "payable": false,
      "stateMutability": "view",
      "type": "function"
    },
    {
      "constant": true,
      "inputs": [],
      "name": "auctionCompletedAt",
      "outputs": [
        {
          "name": "",
          "type": "uint256"
        }
      ],
      "payable": false,
      "stateMutability": "view",
      "type": "function"
    },
    {
      "constant": true,
      "inputs": [],
      "name": "topBid",
      "outputs": [
        {
          "name": "",
          "type": "uint256"
        }
      ],
      "payable": false,
      "stateMutability": "view",
      "type": "function"
    },
    {
      "constant": true,
      "inputs": [],
      "name": "topBidder",
      "outputs": [
        {
          "name": "",
          "type": "address"
        }
      ],
      "payable": false,
      "stateMutability": "view",
      "type": "function"
    },
    {
      "constant": false,
      "inputs": [],
      "name": "startAuction",
      "outputs": [],
      "payable": false,
      "stateMutability": "nonpayable",
      "type": "function"
    },
    {
      "constant": false,
      "inputs": [
        {
          "name": "bid",
          "type": "uint256"
        }
      ],
      "name": "submitBid",
      "outputs": [],
      "payable": false,
      "stateMutability": "nonpayable",
      "type": "function"
    },
    {
      "constant": false,
      "inputs": [],
      "name": "completeAuction",
      "outputs": [],
      "payable": false,
      "stateMutability": "nonpayable",
      "type": "function"
    },
    {
      "constant": false,
      "inputs": [],
      "name": "payout",
      "outputs": [],
      "payable": false,
      "stateMutability": "nonpayable",
      "type": "function"
    }
  ],
  "bytecode": "0x608060405260006005556005600a556103e8600b556001600c553480156200002657600080fd5b5060405160808062001df783398101806040528101908080519060200190929190805190602001909291908051906020019092919080519060200190929190505050836006819055508260078190555081600360006101000a81548173ffffffffffffffffffffffffffffffffffffffff021916908373ffffffffffffffffffffffffffffffffffffffff16021790555080600460006101000a81548173ffffffffffffffffffffffffffffffffffffffff021916908373ffffffffffffffffffffffffffffffffffffffff16021790555062000115336127106200011f640100000000026401000000009004565b50505050620002b6565b600073ffffffffffffffffffffffffffffffffffffffff168273ffffffffffffffffffffffffffffffffffffffff16141515156200015c57600080fd5b6200018181600254620002946401000000000262001990179091906401000000009004565b600281905550620001e8816000808573ffffffffffffffffffffffffffffffffffffffff1673ffffffffffffffffffffffffffffffffffffffff16815260200190815260200160002054620002946401000000000262001990179091906401000000009004565b6000808473ffffffffffffffffffffffffffffffffffffffff1673ffffffffffffffffffffffffffffffffffffffff168152602001908152602001600020819055508173ffffffffffffffffffffffffffffffffffffffff16600073ffffffffffffffffffffffffffffffffffffffff167fddf252ad1be2c89b69c2b068fc378daa952ba7f163c4a11628f55a4df523b3ef836040518082815260200191505060405180910390a35050565b6000808284019050838110151515620002ac57600080fd5b8091505092915050565b611b3180620002c66000396000f30060806040526004361061011d576000357c0100000000000000000000000000000000000000000000000000000000900463ffffffff16806301333f0614610122578063095ea7b31461017957806309d798fa146101de57806318160ddd1461020957806323b872dd146102345780632c387275146102b957806337d44b9814610310578063395093511461033b5780633e109a19146103a05780634d1a2c54146103cb578063531926be146103e2578063636bf7301461040d57806363bd1d4a146104385780636b64c7691461044f57806370a082311461046657806374bdda15146104bd57806399b5d279146104ea578063a457c2d714610541578063a9059cbb146105a6578063dd62ed3e1461060b578063f21fbd4f14610682575b600080fd5b34801561012e57600080fd5b506101376106ad565b604051808273ffffffffffffffffffffffffffffffffffffffff1673ffffffffffffffffffffffffffffffffffffffff16815260200191505060405180910390f35b34801561018557600080fd5b506101c4600480360381019080803573ffffffffffffffffffffffffffffffffffffffff169060200190929190803590602001909291905050506106d7565b604051808215151515815260200191505060405180910390f35b3480156101ea57600080fd5b506101f3610804565b6040518082815260200191505060405180910390f35b34801561021557600080fd5b5061021e61080e565b6040518082815260200191505060405180910390f35b34801561024057600080fd5b5061029f600480360381019080803573ffffffffffffffffffffffffffffffffffffffff169060200190929190803573ffffffffffffffffffffffffffffffffffffffff16906020019092919080359060200190929190505050610818565b604051808215151515815260200191505060405180910390f35b3480156102c557600080fd5b506102ce610a20565b604051808273ffffffffffffffffffffffffffffffffffffffff1673ffffffffffffffffffffffffffffffffffffffff16815260200191505060405180910390f35b34801561031c57600080fd5b50610325610a4a565b6040518082815260200191505060405180910390f35b34801561034757600080fd5b50610386600480360381019080803573ffffffffffffffffffffffffffffffffffffffff16906020019092919080359060200190929190505050610a54565b604051808215151515815260200191505060405180910390f35b3480156103ac57600080fd5b506103b5610c8b565b6040518082815260200191505060405180910390f35b3480156103d757600080fd5b506103e0610c95565b005b3480156103ee57600080fd5b506103f7610d4f565b6040518082815260200191505060405180910390f35b34801561041957600080fd5b50610422610d59565b6040518082815260200191505060405180910390f35b34801561044457600080fd5b5061044d610d63565b005b34801561045b57600080fd5b50610464610f17565b005b34801561047257600080fd5b506104a7600480360381019080803573ffffffffffffffffffffffffffffffffffffffff169060200190929190505050611046565b6040518082815260200191505060405180910390f35b3480156104c957600080fd5b506104e86004803603810190808035906020019092919050505061108e565b005b3480156104f657600080fd5b506104ff61149a565b604051808273ffffffffffffffffffffffffffffffffffffffff1673ffffffffffffffffffffffffffffffffffffffff16815260200191505060405180910390f35b34801561054d57600080fd5b5061058c600480360381019080803573ffffffffffffffffffffffffffffffffffffffff169060200190929190803590602001909291905050506114c4565b604051808215151515815260200191505060405180910390f35b3480156105b257600080fd5b506105f1600480360381019080803573ffffffffffffffffffffffffffffffffffffffff169060200190929190803590602001909291905050506116fb565b604051808215151515815260200191505060405180910390f35b34801561061757600080fd5b5061066c600480360381019080803573ffffffffffffffffffffffffffffffffffffffff169060200190929190803573ffffffffffffffffffffffffffffffffffffffff169060200190929190505050611712565b6040518082815260200191505060405180910390f35b34801561068e57600080fd5b50610697611799565b6040518082815260200191505060405180910390f35b6000600e60009054906101000a900473ffffffffffffffffffffffffffffffffffffffff16905090565b60008073ffffffffffffffffffffffffffffffffffffffff168373ffffffffffffffffffffffffffffffffffffffff161415151561071457600080fd5b81600160003373ffffffffffffffffffffffffffffffffffffffff1673ffffffffffffffffffffffffffffffffffffffff16815260200190815260200160002060008573ffffffffffffffffffffffffffffffffffffffff1673ffffffffffffffffffffffffffffffffffffffff168152602001908152602001600020819055508273ffffffffffffffffffffffffffffffffffffffff163373ffffffffffffffffffffffffffffffffffffffff167f8c5be1e5ebec7d5bd14f71427d1e84f3dd0314c0f7b2291e5b200ac8c7c3b925846040518082815260200191505060405180910390a36001905092915050565b6000600854905090565b6000600254905090565b60006108a982600160008773ffffffffffffffffffffffffffffffffffffffff1673ffffffffffffffffffffffffffffffffffffffff16815260200190815260200160002060003373ffffffffffffffffffffffffffffffffffffffff1673ffffffffffffffffffffffffffffffffffffffff168152602001908152602001600020546117a390919063ffffffff16565b600160008673ffffffffffffffffffffffffffffffffffffffff1673ffffffffffffffffffffffffffffffffffffffff16815260200190815260200160002060003373ffffffffffffffffffffffffffffffffffffffff1673ffffffffffffffffffffffffffffffffffffffff168152602001908152602001600020819055506109348484846117c4565b3373ffffffffffffffffffffffffffffffffffffffff168473ffffffffffffffffffffffffffffffffffffffff167f8c5be1e5ebec7d5bd14f71427d1e84f3dd0314c0f7b2291e5b200ac8c7c3b925600160008873ffffffffffffffffffffffffffffffffffffffff1673ffffffffffffffffffffffffffffffffffffffff16815260200190815260200160002060003373ffffffffffffffffffffffffffffffffffffffff1673ffffffffffffffffffffffffffffffffffffffff168152602001908152602001600020546040518082815260200191505060405180910390a3600190509392505050565b6000600360009054906101000a900473ffffffffffffffffffffffffffffffffffffffff16905090565b6000600754905090565b60008073ffffffffffffffffffffffffffffffffffffffff168373ffffffffffffffffffffffffffffffffffffffff1614151515610a9157600080fd5b610b2082600160003373ffffffffffffffffffffffffffffffffffffffff1673ffffffffffffffffffffffffffffffffffffffff16815260200190815260200160002060008673ffffffffffffffffffffffffffffffffffffffff1673ffffffffffffffffffffffffffffffffffffffff1681526020019081526020016000205461199090919063ffffffff16565b600160003373ffffffffffffffffffffffffffffffffffffffff1673ffffffffffffffffffffffffffffffffffffffff16815260200190815260200160002060008573ffffffffffffffffffffffffffffffffffffffff1673ffffffffffffffffffffffffffffffffffffffff168152602001908152602001600020819055508273ffffffffffffffffffffffffffffffffffffffff163373ffffffffffffffffffffffffffffffffffffffff167f8c5be1e5ebec7d5bd14f71427d1e84f3dd0314c0f7b2291e5b200ac8c7c3b925600160003373ffffffffffffffffffffffffffffffffffffffff1673ffffffffffffffffffffffffffffffffffffffff16815260200190815260200160002060008773ffffffffffffffffffffffffffffffffffffffff1673ffffffffffffffffffffffffffffffffffffffff168152602001908152602001600020546040518082815260200191505060405180910390a36001905092915050565b6000600c54905090565b6000600954141515610ca657600080fd5b6000600d54111515610cb757600080fd5b7f1eee73abf7d625fb02ce8cdbc04500a14d0a0a1ac9d0583c1aaed0677c8b555a600e60009054906101000a900473ffffffffffffffffffffffffffffffffffffffff16600d54604051808373ffffffffffffffffffffffffffffffffffffffff1673ffffffffffffffffffffffffffffffffffffffff1681526020018281526020019250505060405180910390a142600981905550565b6000600654905090565b6000600d54905090565b6000610d6e33611046565b9050600081111515610d7f57600080fd5b6000600954111515610d9057600080fd5b7f5afeca38b2064c23a692c4cf353015d80ab3ecc417b4f893f372690c11fbd9a63382604051808373ffffffffffffffffffffffffffffffffffffffff1673ffffffffffffffffffffffffffffffffffffffff1681526020018281526020019250505060405180910390a1600360009054906101000a900473ffffffffffffffffffffffffffffffffffffffff1673ffffffffffffffffffffffffffffffffffffffff1663a9059cbb33600d5484026040518363ffffffff167c0100000000000000000000000000000000000000000000000000000000028152600401808373ffffffffffffffffffffffffffffffffffffffff1673ffffffffffffffffffffffffffffffffffffffff16815260200182815260200192505050602060405180830381600087803b158015610ec457600080fd5b505af1158015610ed8573d6000803e3d6000fd5b505050506040513d6020811015610eee57600080fd5b81019080805190602001909291905050501515610f0a57600080fd5b610f1433826119b1565b50565b6000600854141515610f2857600080fd5b6007544210158061100657506000600460009054906101000a900473ffffffffffffffffffffffffffffffffffffffff1673ffffffffffffffffffffffffffffffffffffffff1663205f23676006546040518263ffffffff167c010000000000000000000000000000000000000000000000000000000002815260040180828152602001915050602060405180830381600087803b158015610fc957600080fd5b505af1158015610fdd573d6000803e3d6000fd5b505050506040513d6020811015610ff357600080fd5b8101908080519060200190929190505050115b151561101157600080fd5b7fc8f99b9ac2a284b93c3652b9f064a6706724088cdafa9e0a8437c026191b2f0360405160405180910390a142600881905550565b60008060008373ffffffffffffffffffffffffffffffffffffffff1673ffffffffffffffffffffffffffffffffffffffff168152602001908152602001600020549050919050565b60008060006008541115156110a257600080fd5b60006009541415156110b357600080fd5b600c5483101515156110c457600080fd5b7fe684a55f31b79eca403df938249029212a5925ec6be8012e099b45bc1019e5d23384604051808373ffffffffffffffffffffffffffffffffffffffff1673ffffffffffffffffffffffffffffffffffffffff1681526020018281526020019250505060405180910390a1600073ffffffffffffffffffffffffffffffffffffffff16600e60009054906101000a900473ffffffffffffffffffffffffffffffffffffffff1673ffffffffffffffffffffffffffffffffffffffff161415156112c057600360009054906101000a900473ffffffffffffffffffffffffffffffffffffffff1673ffffffffffffffffffffffffffffffffffffffff1663a9059cbb600e60009054906101000a900473ffffffffffffffffffffffffffffffffffffffff166111f061080e565b600d54026040518363ffffffff167c0100000000000000000000000000000000000000000000000000000000028152600401808373ffffffffffffffffffffffffffffffffffffffff1673ffffffffffffffffffffffffffffffffffffffff16815260200182815260200192505050602060405180830381600087803b15801561127957600080fd5b505af115801561128d573d6000803e3d6000fd5b505050506040513d60208110156112a357600080fd5b810190808051906020019092919050505015156112bf57600080fd5b5b600360009054906101000a900473ffffffffffffffffffffffffffffffffffffffff1673ffffffffffffffffffffffffffffffffffffffff166323b872dd333061130861080e565b87026040518463ffffffff167c0100000000000000000000000000000000000000000000000000000000028152600401808473ffffffffffffffffffffffffffffffffffffffff1673ffffffffffffffffffffffffffffffffffffffff1681526020018373ffffffffffffffffffffffffffffffffffffffff1673ffffffffffffffffffffffffffffffffffffffff1681526020018281526020019350505050602060405180830381600087803b1580156113c257600080fd5b505af11580156113d6573d6000803e3d6000fd5b505050506040513d60208110156113ec57600080fd5b8101908080519060200190929190505050151561140857600080fd5b82600d8190555033600e60006101000a81548173ffffffffffffffffffffffffffffffffffffffff021916908373ffffffffffffffffffffffffffffffffffffffff16021790555042600f81905550600a5483029150600090506000600b548381151561147157fe5b06111561147d57600190505b600b548281151561148a57fe5b0481840101600c81905550505050565b6000600460009054906101000a900473ffffffffffffffffffffffffffffffffffffffff16905090565b60008073ffffffffffffffffffffffffffffffffffffffff168373ffffffffffffffffffffffffffffffffffffffff161415151561150157600080fd5b61159082600160003373ffffffffffffffffffffffffffffffffffffffff1673ffffffffffffffffffffffffffffffffffffffff16815260200190815260200160002060008673ffffffffffffffffffffffffffffffffffffffff1673ffffffffffffffffffffffffffffffffffffffff168152602001908152602001600020546117a390919063ffffffff16565b600160003373ffffffffffffffffffffffffffffffffffffffff1673ffffffffffffffffffffffffffffffffffffffff16815260200190815260200160002060008573ffffffffffffffffffffffffffffffffffffffff1673ffffffffffffffffffffffffffffffffffffffff168152602001908152602001600020819055508273ffffffffffffffffffffffffffffffffffffffff163373ffffffffffffffffffffffffffffffffffffffff167f8c5be1e5ebec7d5bd14f71427d1e84f3dd0314c0f7b2291e5b200ac8c7c3b925600160003373ffffffffffffffffffffffffffffffffffffffff1673ffffffffffffffffffffffffffffffffffffffff16815260200190815260200160002060008773ffffffffffffffffffffffffffffffffffffffff1673ffffffffffffffffffffffffffffffffffffffff168152602001908152602001600020546040518082815260200191505060405180910390a36001905092915050565b60006117083384846117c4565b6001905092915050565b6000600160008473ffffffffffffffffffffffffffffffffffffffff1673ffffffffffffffffffffffffffffffffffffffff16815260200190815260200160002060008373ffffffffffffffffffffffffffffffffffffffff1673ffffffffffffffffffffffffffffffffffffffff16815260200190815260200160002054905092915050565b6000600954905090565b6000808383111515156117b557600080fd5b82840390508091505092915050565b600073ffffffffffffffffffffffffffffffffffffffff168273ffffffffffffffffffffffffffffffffffffffff161415151561180057600080fd5b611851816000808673ffffffffffffffffffffffffffffffffffffffff1673ffffffffffffffffffffffffffffffffffffffff168152602001908152602001600020546117a390919063ffffffff16565b6000808573ffffffffffffffffffffffffffffffffffffffff1673ffffffffffffffffffffffffffffffffffffffff168152602001908152602001600020819055506118e4816000808573ffffffffffffffffffffffffffffffffffffffff1673ffffffffffffffffffffffffffffffffffffffff1681526020019081526020016000205461199090919063ffffffff16565b6000808473ffffffffffffffffffffffffffffffffffffffff1673ffffffffffffffffffffffffffffffffffffffff168152602001908152602001600020819055508173ffffffffffffffffffffffffffffffffffffffff168373ffffffffffffffffffffffffffffffffffffffff167fddf252ad1be2c89b69c2b068fc378daa952ba7f163c4a11628f55a4df523b3ef836040518082815260200191505060405180910390a3505050565b60008082840190508381101515156119a757600080fd5b8091505092915050565b600073ffffffffffffffffffffffffffffffffffffffff168273ffffffffffffffffffffffffffffffffffffffff16141515156119ed57600080fd5b611a02816002546117a390919063ffffffff16565b600281905550611a59816000808573ffffffffffffffffffffffffffffffffffffffff1673ffffffffffffffffffffffffffffffffffffffff168152602001908152602001600020546117a390919063ffffffff16565b6000808473ffffffffffffffffffffffffffffffffffffffff1673ffffffffffffffffffffffffffffffffffffffff16815260200190815260200160002081905550600073ffffffffffffffffffffffffffffffffffffffff168273ffffffffffffffffffffffffffffffffffffffff167fddf252ad1be2c89b69c2b068fc378daa952ba7f163c4a11628f55a4df523b3ef836040518082815260200191505060405180910390a350505600a165627a7a7230582007a74f51e703ec94619906a054a5b444c74b4e966b3cda3df42af55be9d3b0090029",
  "source": "pragma solidity ^0.4.24;\n\nimport \"./OathForge.sol\";\nimport \"./ERC721.sol\";\nimport \"./ERC20.sol\";\nimport \"./SafeMath.sol\";\n\n/// @title RiftPact: OathForge Token Fracturizer\n/// @author GuildCrypt\ncontract RiftPact is ERC20 {\n\n  using SafeMath for uint256;\n\n  address private _daiAddress; // TODO: Hard code; Left variable for testability\n  address private _oathForgeAddress; // TODO: Hard code; Left variable for testability\n  uint256 private _minAuctionCompleteWait = 0; // 7 days in seconds\n\n  uint256 private _oathForgeTokenId;\n  uint256 private _auctionAllowedAt;\n\n  uint256 private _auctionStartedAt;\n  uint256 private _auctionCompletedAt;\n  uint256 private _minBidDeltaPerunNumerator = 5;\n  uint256 private _minBidDeltaPerunDenominator = 1000;\n\n  uint256 private _minBid = 1;\n  uint256 private _topBid;\n  address private _topBidder;\n  uint256 private _topBidSubmittedAt;\n\n  /// @param __oathForgeTokenId The id of the token on the OathForge contract\n  /// @param __auctionAllowedAt The timestamp at which anyone can start an auction\n  /// @param __daiAddress The address of the DAI contract. **TODO: Hard code. Left Variable for testability.**\n  /// @param __oathForgeAddress The address of the OathForge contract **TODO: Hard code. Left Variable for testability.**\n  function RiftPact(\n    uint256 __oathForgeTokenId,\n    uint256 __auctionAllowedAt,\n    address __daiAddress, // TODO: Hard code; Left variable for testability\n    address __oathForgeAddress // TODO: Hard code; Left variable for testability\n  ) public {\n    _oathForgeTokenId = __oathForgeTokenId;\n    _auctionAllowedAt = __auctionAllowedAt;\n\n    _daiAddress = __daiAddress; // TODO: Hard code; Left variable for testability\n    _oathForgeAddress = __oathForgeAddress; // TODO: Hard code; Left variable for testability\n\n    _mint(msg.sender, 10000);\n  }\n\n  /// @dev Emits when an auction is started\n  event AuctionStarted();\n\n  /// @dev Emits when the auction is completed\n  /// @param bid The final bid price of the auction\n  /// @param winner The winner of the auction\n  event AuctionCompleted(address winner, uint256 bid);\n\n  /// @dev Emits when there is a bid\n  /// @param bid The bid\n  /// @param bidder The address of the bidder\n  event Bid(address bidder, uint256 bid);\n\n  /// @dev Emits when there is a payout\n  /// @param to The address of the account paying out\n  /// @param balance The balance of `to` prior to the paying out\n  event Payout(address to, uint256 balance);\n\n  /// @dev Returns the DAI contract address.\n  function daiAddress() external view returns(address) {\n    return _daiAddress;\n  }\n\n  /// @dev Returns the OathForge contract address.\n  function oathForgeAddress() external view returns(address) {\n    return _oathForgeAddress;\n  }\n\n  /// @dev Returns the OathForge token id. **Does not imply RiftPact has ownership over token.**\n  function oathForgeTokenId() external view returns(uint256) {\n    return _oathForgeTokenId;\n  }\n\n  /// @dev Returns the timestamp at which anyone can start an auction by calling [`startAuction()`](#startAuction())\n  function auctionAllowedAt() external view returns(uint256) {\n    return _auctionAllowedAt;\n  }\n\n  /// @dev Returns the minimum bid in attoDAI (10^-18 DAI).\n  function minBid() external view returns(uint256) {\n    return _minBid;\n  }\n\n  /// @dev Returns the timestamp at which an auction was started or 0 if no auction has been started\n  function auctionStartedAt() external view returns(uint256) {\n    return _auctionStartedAt;\n  }\n\n  /// @dev Returns the timestamp at which an auction was completed or 0 if no auction has been completed\n  function auctionCompletedAt() external view returns(uint256) {\n    return _auctionCompletedAt;\n  }\n\n  /// @dev Returns the top bid or 0 if no bids have been placed\n  function topBid() external view returns(uint256) {\n    return _topBid;\n  }\n\n  /// @dev Returns the top bidder or `address(0)` if no bids have been placed\n  function topBidder() external view returns(address) {\n    return _topBidder;\n  }\n\n  /// @dev Start an auction\n  function startAuction() external {\n    require(_auctionStartedAt == 0);\n    require(\n      (now >= _auctionAllowedAt)\n      || (OathForge(_oathForgeAddress).sunsetInitiatedAt(_oathForgeTokenId) > 0)\n    );\n    emit AuctionStarted();\n    _auctionStartedAt = now;\n  }\n\n  /// @dev Submit a bid. Must have sufficient funds approved in `DAI` contract (bid * totalSupply).\n  /// @param bid Bid in attoDAI (10^-18 DAI)\n  function submitBid(uint256 bid) external {\n    require(_auctionStartedAt > 0);\n    require(_auctionCompletedAt == 0);\n    require (bid >= _minBid);\n    emit Bid(msg.sender, bid);\n    if (_topBidder != address(0)) {\n      require(ERC20(_daiAddress).transfer(_topBidder, _topBid * totalSupply()));\n    }\n    require(ERC20(_daiAddress).transferFrom(msg.sender, address(this), bid * totalSupply()));\n\n    _topBid = bid;\n    _topBidder = msg.sender;\n    _topBidSubmittedAt = now;\n\n    uint256 minBidDeltaNumerator = bid * _minBidDeltaPerunNumerator;\n    uint256 minBidRoundUp = 0;\n\n    if(minBidDeltaNumerator % _minBidDeltaPerunDenominator > 0) {\n      minBidRoundUp = 1;\n    }\n\n    _minBid =  (\n      bid + minBidRoundUp + (\n      (\n        minBidDeltaNumerator / _minBidDeltaPerunDenominator\n      )\n     )\n    );\n  }\n\n  /// @dev Complete auction\n  function completeAuction() external {\n    require(_auctionCompletedAt == 0);\n    require(_topBid > 0);\n    //require((_topBidSubmittedAt + _minAuctionCompleteWait) < now);\n    emit AuctionCompleted(_topBidder, _topBid);\n    _auctionCompletedAt = now;\n  }\n\n  /// @dev Payout `dai` after auction completed\n  function payout() external {\n    uint256 balance = balanceOf(msg.sender);\n    require(balance > 0);\n    require(_auctionCompletedAt > 0);\n    emit Payout(msg.sender, balance);\n    require(ERC20(_daiAddress).transfer(msg.sender, balance * _topBid));\n    _burn(msg.sender, balance);\n  }\n\n\n}\n",
  "sourcePath": "/home/abhi_21094/Projects/guildcryptAudit/contracts/RiftPact.sol",
  "compiler": {
    "name": "solc",
    "version": "0.4.24+commit.e67f0147.Emscripten.clang"
  },
  "schemaVersion": "2.0.1",
  "updatedAt": "2019-01-23T06:04:44.825Z"
}